:0400000007EF00F016
:0A0008006882D0ED05F0E0EF09F08A
:07060000000A0A003A0000A5
:100608000F0EC112000E926E000E936E000E956EC4
:1006180094809482948494869488000E896E000E47
:100628008A6E000E8C6E948E948CAC8AAB8E010E02
:1006380000019C6F060E9D6FFDEC09F0C00EF26E76
:100648009D80CD809E90FC0ECF6E3A0ECE6E82A01D
:1006580030EF03F032EF03F044EF03F0000E676E63
:10066800000E666E000E656E000E646E000E636E00
:10067800000E626E000E616E000E606E2BEF03F0CE
:1006880082A249EF03F04BEF03F07CEF03F0CD902B
:100698006EEF03F03B0E62240001806F000E6320B2
:1006A800816F000E836F3C0E826FCBEC07F080C029
:1006B80062F081C063F087EC09F0030E0001B06FAF
:1006C8008A0EAF6F550EE82EFED7AF2FFCD7B02F8E
:1006D800FAD700D082B273EF03F075EF03F04EEF54
:1006E80003F0FC0ECF6E3A0ECE6ECD802BEF03F0EA
:1006F80082A481EF03F083EF03F0B4EF03F0CD9011
:10070800A6EF03F0010E62240001806F000E632043
:10071800816F000E836F3C0E826FCBEC07F080C0B8
:1007280062F081C063F087EC09F0030E0001B06F3E
:100738008A0EAF6F550EE82EFED7AF2FFCD7B02F1D
:10074800FAD700D082B4ABEF03F0ADEF03F086EF39
:1007580003F0FC0ECF6E3A0ECE6ECD802BEF03F079
:1007680082A6B9EF03F0BBEF03F0ECEF03F0CD90F6
:10077800DEEF03F0170E60240001806F000E612089
:10078800816F000E836F180E826FCBEC07F080C06C
:1007980060F081C061F087EC09F0030E0001B06FD2
:1007A8008A0EAF6F550EE82EFED7AF2FFCD7B02FAD
:1007B800FAD700D082B6E3EF03F0E5EF03F0BEEF1F
:1007C80003F0FC0ECF6E3A0ECE6ECD802BEF03F009
:1007D80082A8F1EF03F0F3EF03F024EF04F0CD90DB
:1007E80016EF04F0010E60240001806F000E6120F6
:1007F800816F000E836F180E826FCBEC07F080C0FC
:1008080060F081C061F087EC09F0030E0001B06F61
:100818008A0EAF6F550EE82EFED7AF2FFCD7B02F3C
:10082800FAD700D082B81BEF04F01DEF04F0F6EF02
:1008380003F0FC0ECF6E3A0ECE6ECD802BEF03F098
:100848002BEF03F007EF00F08CC0D9FF8DC0DAFF63
:10085800DECFF6FFDECFF7FF050EF76403D0080002
:10086800F55005D0F6CFE1FFF7CFE2FFE750250AB4
:10087800D8A441EF04F043EF04F0D6EF04F08CC0A5
:10088800D9FF8DC0DAFFDE2A000EDD22000E5B6E76
:10089800000E5A6E5AC05EF05BC05FF05C685D681F
:1008A8008CC0D9FF8DC0DAFFDECFF6FFDECFF7FFB1
:1008B800050EF76403D00800F55005D0F6CFE1FF28
:1008C800F7CFE2FFE7506E0AD8A46DEF04F06FEFA0
:1008D80004F099EF04F08CC0D9FF8DC0DAFFDE2A4E
:1008E800000EDD228EC0D9FF8FC0DAFFDFCF90F077
:1008F800020EDE26DFCF91F0000EDD2290C0D9FF78
:1009080091C0DAFFDECF92F0DDCF93F092C0D9FF2D
:1009180093C0DAFF58C0DEFF59C0DDFF000E0001AA
:100928008B6F000E8A6FFDEF04F08CC0D9FF8DC06D
:10093800DAFFDECFF6FFDECFF7FF050EF76403D050
:100948000800F55005D0F6CFE1FFF7CFE2FFE750FA
:10095800250AD8A4B2EF04F0B4EF04F0CDEF04F008
:100968008CC0D9FF8DC0DAFFDE2A000EDD22000E12
:100978000001826F250E816F8AC083F08BC084F0DE
:100988007CEC08F0000E00018B6F010E8A6FFDEF02
:1009980004F08CC0D9FF8DC0DAFFDE2A000EDD22FC
:1009A80092EF04F08CC0D9FF8DC0DAFFDECFF6FFDE
:1009B800DECFF7FF050EF76403D00800F55005D029
:1009C800F6CFE1FFF7CFE2FFE7500001906F9051BB
:1009D800816F826B8AC083F08BC084F07CEC08F056
:1009E8008CC0D9FF8DC0DAFFDE2A000EDD22C6EFEB
:1009F80004F012000DC0D9FF0EC0DAFFDECFF6FFFB
:100A0800DECFF7FF050EF76403D00800F55005D0D8
:100A1800F6CFE1FFF7CFE2FFE750250AD8A417EF9A
:100A280005F019EF05F0A9EF05F00DC0D9FF0EC0CC
:100A3800DAFFDE2A000EDD22000E5B6E000E5A6E13
:100A48005AC05EF05BC05FF05C685D680DC0D9FF9E
:100A58000EC0DAFFDECFF6FFDECFF7FF050EF76434
:100A680003D00800F55005D0F6CFE1FFF7CFE2FF3D
:100A7800E7506E0AD8A443EF05F045EF05F06EEF96
:100A880005F00DC0D9FF0EC0DAFFDE2A000EDD2208
:100A98000FC0D9FF10C0DAFFDFCF11F0020EDE263B
:100AA800DFCF12F0000EDD2211C0D9FF12C0DAFF2D
:100AB800DECF13F0DDCF14F013C0D9FF14C0DAFF76
:100AC80058C0DEFF59C0DDFF000E0C6E000E0B6E25
:100AD800CFEF05F00DC0D9FF0EC0DAFFDECFF6FF6D
:100AE800DECFF7FF050EF76403D00800F55005D0F8
:100AF800F6CFE1FFF7CFE2FFE750250AD8A487EF4A
:100B080005F089EF05F0A0EF05F00DC0D9FF0EC084
:100B1800DAFFDE2A000EDD22000E036E250E026EBD
:100B28000BC004F00CC005F0C8EC08F0000E0C6E09
:100B3800010E0B6ECFEF05F00DC0D9FF0EC0DAFF26
:100B4800DE2A000EDD2268EF05F00DC0D9FF0EC0C9
:100B5800DAFFDECFF6FFDECFF7FF050EF76403D02E
:100B68000800F55005D0F6CFE1FFF7CFE2FFE750D8
:100B7800116E1150026E036A0BC004F00CC005F030
:100B8800C8EC08F00DC0D9FF0EC0DAFFDE2A000E4F
:100B9800DD229AEF05F012000600E1CF30F0E2CF37
:100BA80031F0D9CF32F0DACF33F0F6CF34F0F7CFD7
:100BB80035F0F8CF36F0F5CF37F09EA0E6EF05F028
:100BC800E8EF05F03CEF06F09E90FC0ECF6E3A0E73
:100BD800CE6E00F0664A672A67BEFCEF05F0E80EA5
:100BE800665C030E6758D8A0FCEF05F0FEEF05F031
:100BF8003CEF06F0000E676E000E666E644A652ACA
:100C080065BE10EF06F0655009E13C0E645CD8A0A3
:100C180010EF06F012EF06F03AEF06F0000E656EE0
:100C2800000E646E624A632A63BE24EF06F06350C6
:100C380009E13C0E625CD8A024EF06F026EF06F02E
:100C48003AEF06F0000E636E000E626E010E60242D
:100C5800016E000E6120026E000E046E180E036E07
:100C680024EC08F001C060F002C061F0B5EC09F0B6
:100C780037C0F5FF36C0F8FF35C0F7FF34C0F6FFC0
:100C880033C0DAFF32C0D9FF31C0E2FF30C0E1FF24
:100C980068921100000E0001856F83BF58EF06F0BF
:100CA80056EF06F05EEF06F0826D831FD8B0832BF7
:100CB800010E856F81BF65EF06F063EF06F06BEFFD
:100CC80006F0806D811FD8B0812B010E851B000EA8
:100CD800876F000E866F82518311D8B476EF06F0C5
:100CE80078EF06F0A0EF06F0010E846F80EF06F0B3
:100CF800D89082378337842B83AF85EF06F087EF50
:100D080006F07CEF06F0D890863787378251805DF1
:100D180083518159D8A093EF06F095EF06F09AEF2A
:100D280006F08251805F8351815B8681D89083333E
:100D38008233842F87EF06F08551D8B4A6EF06F0EA
:100D4800A8EF06F0ACEF06F0866D871FD8B0872BAA
:100D580086C080F087C081F01200000E066E04BEC7
:100D6800BAEF06F0B8EF06F0C0EF06F0036C041E09
:100D7800D8B0042A010E066E02BEC7EF06F0C5EF12
:100D880006F0CDEF06F0016C021ED8B0022A010E63
:100D9800061A000E086E000E076E03500410D8B431
:100DA800D8EF06F0DAEF06F002EF07F0010E056E55
:100DB800E2EF06F0D89003360436052A04AEE7EFD2
:100DC80006F0E9EF06F0DEEF06F0D89007360836B1
:100DD8000350015C04500258D8A0F5EF06F0F7EF75
:100DE80006F0FCEF06F00350015E0450025A07803B
:100DF800D89004320332052EE9EF06F00650D8B435
:100E080008EF07F00AEF07F00EEF07F0076C081E6F
:100E1800D8B0082A07C001F008C002F0120020EE7E
:100E2800B1F010EEA4F0080EDBCFE3FFE806FCE219
:100E3800000E0001AE6F000EAD6FA0A126EF07F007
:100E480028EF07F03AEF07F0070EA26F000EA36F26
:100E5800AD51A25FAE51A35BA40EA225D96E000EC0
:100E6800A321DA6E310EDF6E4AEF07F0070EA26F8C
:100E7800000EA36FAD51A25FAE51A35BA40EA225D5
:100E8800D96E000EA321DA6E300EDF6EA0C080F09E
:100E9800A1C081F0000E836F020E826F4EEC06F047
:100EA80080C0A0F081C0A1F00001AD4BAE2BAEBF59
:100EB80067EF07F0AE5109E1080EAD5DD8A067EF06
:100EC80007F069EF07F021EF07F0A40E9C6F000E02
:100ED8009D6FFDEC09F0120020EEB1F010EE25F048
:100EE800080EDBCFE3FFE806FCE2000E2F6E000ED3
:100EF8002E6E21A082EF07F084EF07F096EF07F03F
:100F0800070E236E000E246E2E50235E2F50245A97
:100F1800250E2324D96E000E2420DA6E310EDF6EE2
:100F2800A6EF07F0070E236E000E246E2E50235EE8
:100F38002F50245A250E2324D96E000E2420DA6E51
:100F4800300EDF6E21C001F022C002F0000E046EE8
:100F5800020E036EB1EC06F001C021F002C022F0CF
:100F68002E4A2F2A2FBEC2EF07F02F5009E1080E94
:100F78002E5CD8A0C2EF07F0C4EF07F07DEF07F0B2
:100F8800250E1D6E000E1E6E11EC0AF01200000EEA
:100F98000001856F81BFD5EF07F0D3EF07F0DBEFD6
:100FA80007F0806D811FD8B0812B010E856F83BF3C
:100FB800E2EF07F0E0EF07F0E6EF07F0826D831F3E
:100FC800D8B0832B82518311D8B4EDEF07F0EFEF3F
:100FD80007F013EF08F0010E846FF7EF07F0D890D1
:100FE80082378337842B83AFFCEF07F0FEEF07F0DF
:100FF800F3EF07F08251805D83518159D8A007EF44
:1010080008F009EF08F00DEF08F08251805F835176
:10101800815BD89083338233842FFEEF07F08551AC
:10102800D8B419EF08F01BEF08F01FEF08F0806D37
:10103800811FD8B0812B80C080F081C081F0120060
:10104800000E066E02BE2DEF08F02BEF08F033EF0E
:1010580008F0016C021ED8B0022A010E066E04BE0A
:101068003AEF08F038EF08F03EEF08F0036C041E82
:10107800D8B0042A03500410D8B445EF08F047EF5D
:1010880008F06BEF08F0010E056E4FEF08F0D890EE
:1010980003360436052A04AE54EF08F056EF08F07C
:1010A8004BEF08F00350015C04500258D8A05FEFE2
:1010B80008F061EF08F065EF08F00350015E045096
:1010C800025AD89004320332052E56EF08F0065023
:1010D800D8B471EF08F073EF08F077EF08F0016CFF
:1010E800021ED8B0022A01C001F002C002F01200AC
:1010F800000183518411D8B484EF08F086EF08F01A
:101108008FEF08F083518411D8A48DEF08F08FEF8A
:1011180008F094EF08F0815124EC0AF0C7EF08F0CA
:1011280020EE04F08351D9268451DA22DE50DE10F5
:10113800D8B4A1EF08F0A3EF08F0BEEF08F020EE56
:1011480004F08351D9268451DA2210EE02F083513B
:10115800E1268451E222DE50E65CE650800A896F7F
:10116800DE50800A8959D8B0BCEF08F0BEEF08F00D
:10117800C7EF08F020EE02F08351D9268451DA2215
:10118800DE2A000EDD22120004500510D8B4CFEF7D
:1011980008F0D1EF08F0DAEF08F004500510D8A4F1
:1011A800D8EF08F0DAEF08F0DFEF08F0025030EC83
:1011B8000AF012EF09F020EE04F00450D926055089
:1011C800DA22DE50DE10D8B4ECEF08F0EEEF08F0CB
:1011D80009EF09F020EE04F00450D9260550DA2270
:1011E80010EE02F00450E1260550E222DE50E65CE3
:1011F800E650800A0A6EDE50800A0A58D8B007EF17
:1012080009F009EF09F012EF09F020EE02F004509E
:10121800D9260550DA22DE2A000EDD22120096C0F9
:101228009AF097C09BF0000E596E000E586E31EF81
:1012380009F094C08AF095C08BF09A0E00018C6F6B
:10124800000E8D6F98C08EF099C08FF028EC04F0D6
:1012580000018A5158268B5159229AC0F6FF9BC02B
:10126800F7FFF86A050EF76403D00800F55005D0BB
:10127800F6CFE1FFF7CFE2FFE7500009D8A447EF28
:1012880009F049EF09F01DEF09F058C094F059C072
:1012980095F0120017C01BF018C01CF0000E596E14
:1012A800000E586E6AEF09F015C00BF016C00CF06E
:1012B8001B0E0D6E000E0E6E19C00FF01AC010F046
:1012C800FEEC04F00B5058260C5059221BC0F6FFB8
:1012D8001CC0F7FFF86A050EF76403D00800F55044
:1012E80005D0F6CFE1FFF7CFE2FFE7500009D8A419
:1012F80080EF09F082EF09F058EF09F058C015F0B7
:1013080059C016F0120060C0A0F061C0A1F013EC43
:1013180007F0040E00019C6F060E9D6FFDEC09F0AE
:1013280062C0A0F063C0A1F013EC07F0040E000146
:101338009C6F060E9D6FFDEC09F064C0A0F065C0BF
:10134800A1F013EC07F0020E00019C6F060E9D6FD2
:10135800FDEC09F064C089FF62C08AFF60C08CFFA1
:10136800120060C021F061C022F070EC07F0040E9A
:101378001D6E060E1E6E11EC0AF062C021F063C0ED
:1013880022F070EC07F0040E1D6E060E1E6E11ECB6
:101398000AF064C021F065C022F070EC07F0020E7C
:1013A8001D6E060E1E6E11EC0AF064C089FF62C045
:1013B8008AFF60C08CFF1200760EF66E140EF76E70
:1013C800000EF86E00EEB1F010EE09F00900F5CF4E
:1013D800EEFFE550E150FAE100EE38F0300EEE6A2B
:1013E800E806FDE168906892000EF86E000104EFCF
:1013F80003F09E0E00019E6F000E9F6F000E946F0B
:10140800000E956F9CC096F09DC097F09E0E986F49
:10141800000E996F13EC09F012001F0E1F6E000EDC
:10142800206E000E156E000E166E1DC017F01EC041
:1014380018F01F0E196E000E1A6E4EEC09F012000D
:101448000001806F9EA82BEF0AF02DEF0AF026EF1F
:101458000AF080C0ADFF1200016E9EA836EF0AF0B8
:1014680038EF0AF031EF0AF001C0ADFF120030305A
:07147800303030303030004D
:020000040020DA
:08000000FFFFFFFFFFFFFFFF00
:020000040030CA
:0E000000FF01191EFF8181FF0FC00FE00F40AE
:00000001FF
