:0400000007EF00F016
:0A0008006882CEED05F0DDEF09F08F
:07060000000A0A003A0000A5
:100608000F0EC112000E926E000E936E000E956EC4
:1006180094809482948494869488000E896E000E47
:100628008A6E000E8C6E948E948CAC8AAB8E010E02
:1006380000019C6F060E9D6F06EC0AF0C00EF26E6C
:100648009D80CD809E90FC0ECF6E3A0ECE6E82A01D
:1006580030EF03F032EF03F042EF03F0000E656E67
:10066800000E646E66686768000E636E000E626E48
:10067800000E616E000E606E2BEF03F082A247EF52
:1006880003F049EF03F07AEF03F0CD906CEF03F03D
:100698003B0E62240001806F000E6320816F000E04
:1006A800836F3C0E826FC8EC07F080C062F081C097
:1006B80063F084EC09F0030E0001B06F8A0EAF6F8F
:1006C800550EE82EFED7AF2FFCD7B02FFAD700D0A3
:1006D80082B271EF03F073EF03F04CEF03F0FC0EFE
:1006E800CF6E3A0ECE6ECD802BEF03F082A47FEF53
:1006F80003F081EF03F0B2EF03F0CD90A4EF03F025
:10070800010E62240001806F000E6320816F000ECD
:10071800836F3C0E826FC8EC07F080C062F081C026
:1007280063F084EC09F0030E0001B06F8A0EAF6F1E
:10073800550EE82EFED7AF2FFCD7B02FFAD700D032
:1007480082B4A9EF03F0ABEF03F084EF03F0FC0EE3
:10075800CF6E3A0ECE6ECD802BEF03F082A6B7EFA8
:1007680003F0B9EF03F0EAEF03F0CD90DCEF03F00C
:10077800170E60240001806F000E6120816F000E4B
:10078800836F180E826FC8EC07F080C060F081C0DC
:1007980061F084EC09F0030E0001B06F8A0EAF6FB0
:1007A800550EE82EFED7AF2FFCD7B02FFAD700D0C2
:1007B80082B6E1EF03F0E3EF03F0BCEF03F0FC0EC9
:1007C800CF6E3A0ECE6ECD802BEF03F082A8EFEFFE
:1007D80003F0F1EF03F022EF04F0CD9014EF04F0F2
:1007E800010E60240001806F000E6120816F000EF1
:1007F800836F180E826FC8EC07F080C060F081C06C
:1008080061F084EC09F0030E0001B06F8A0EAF6F3F
:10081800550EE82EFED7AF2FFCD7B02FFAD700D051
:1008280082B819EF04F01BEF04F0F4EF03F0FC0EAC
:10083800CF6E3A0ECE6ECD802BEF03F02BEF03F088
:1008480007EF00F08CC0D9FF8DC0DAFFDECFF6FFCE
:10085800DECFF7FF050EF76403D00800F55005D08A
:10086800F6CFE1FFF7CFE2FFE750250AD8A43FEF24
:1008780004F041EF04F0D4EF04F08CC0D9FF8DC030
:10088800DAFFDE2A000EDD22000E5B6E000E5A6EC5
:100898005AC05EF05BC05FF05C685D688CC0D9FFD1
:1008A8008DC0DAFFDECFF6FFDECFF7FF050EF76467
:1008B80003D00800F55005D0F6CFE1FFF7CFE2FFEF
:1008C800E7506E0AD8A46BEF04F06DEF04F097EFD1
:1008D80004F08CC0D9FF8DC0DAFFDE2A000EDD22BD
:1008E8008EC0D9FF8FC0DAFFDFCF90F0020EDE2670
:1008F800DFCF91F0000EDD2290C0D9FF91C0DAFF62
:10090800DECF92F0DDCF93F092C0D9FF93C0DAFF2B
:1009180058C0DEFF59C0DDFF000E00018B6F000ECE
:100928008A6FFBEF04F08CC0D9FF8DC0DAFFDECFF1
:10093800F6FFDECFF7FF050EF76403D00800F55089
:1009480005D0F6CFE1FFF7CFE2FFE750250AD8A49C
:10095800B0EF04F0B2EF04F0CBEF04F08CC0D9FF95
:100968008DC0DAFFDE2A000EDD22000E0001826F44
:10097800250E816F8AC083F08BC084F079EC08F073
:10098800000E00018B6F010E8A6FFBEF04F08CC024
:10099800D9FF8DC0DAFFDE2A000EDD2290EF04F0C9
:1009A8008CC0D9FF8DC0DAFFDECFF6FFDECFF7FFB0
:1009B800050EF76403D00800F55005D0F6CFE1FF27
:1009C800F7CFE2FFE7500001906F9051816F826B83
:1009D8008AC083F08BC084F079EC08F08CC0D9FF12
:1009E8008DC0DAFFDE2A000EDD22C4EF04F012000B
:1009F8000DC0D9FF0EC0DAFFDECFF6FFDECFF7FF5E
:100A0800050EF76403D00800F55005D0F6CFE1FFD6
:100A1800F7CFE2FFE750250AD8A415EF05F017EF46
:100A280005F0A7EF05F00DC0D9FF0EC0DAFFDE2AEA
:100A3800000EDD22000E5B6E000E5A6E5AC05EF08C
:100A48005BC05FF05C685D680DC0D9FF0EC0DAFF5F
:100A5800DECFF6FFDECFF7FF050EF76403D0080000
:100A6800F55005D0F6CFE1FFF7CFE2FFE7506E0A69
:100A7800D8A441EF05F043EF05F06CEF05F00DC089
:100A8800D9FF0EC0DAFFDE2A000EDD220FC0D9FF23
:100A980010C0DAFFDFCF11F0020EDE26DFCF12F032
:100AA800000EDD2211C0D9FF12C0DAFFDECF13F02D
:100AB800DDCF14F013C0D9FF14C0DAFF58C0DEFF31
:100AC80059C0DDFF000E0C6E000E0B6ECDEF05F069
:100AD8000DC0D9FF0EC0DAFFDECFF6FFDECFF7FF7D
:100AE800050EF76403D00800F55005D0F6CFE1FFF6
:100AF800F7CFE2FFE750250AD8A485EF05F087EF86
:100B080005F09EEF05F00DC0D9FF0EC0DAFFDE2A12
:100B1800000EDD22000E036E250E026E0BC004F0DF
:100B28000CC005F0C5EC08F0000E0C6E010E0B6E43
:100B3800CDEF05F00DC0D9FF0EC0DAFFDE2A000E9A
:100B4800DD2266EF05F00DC0D9FF0EC0DAFFDECF5B
:100B5800F6FFDECFF7FF050EF76403D00800F55067
:100B680005D0F6CFE1FFF7CFE2FFE750116E115045
:100B7800026E036A0BC004F00CC005F0C5EC08F067
:100B88000DC0D9FF0EC0DAFFDE2A000EDD2298EF75
:100B980005F012000600E1CF30F0E2CF31F0D9CFF6
:100BA80032F0DACF33F0F6CF34F0F7CF35F0F8CFB4
:100BB80036F0F5CF37F09EA0E4EF05F0E6EF05F04C
:100BC80039EF06F09E90FC0ECF6E3A0ECE6E644A58
:100BD800652A65BEF9EF05F0E80E645C030E6558FA
:100BE800D8A0F9EF05F0FBEF05F039EF06F0000E9D
:100BF800656E000E646E664A672A67BE0DEF06F0E2
:100C0800675009E13C0E665CD8A00DEF06F00FEFC7
:100C180006F037EF06F0000E676E000E666E624A49
:100C2800632A63BE21EF06F0635009E13C0E625C63
:100C3800D8A021EF06F023EF06F037EF06F0000EFC
:100C4800636E000E626E010E6024016E000E61205C
:100C5800026E000E046E180E036E21EC08F001C03F
:100C680060F002C061F0B2EC09F037C0F5FF36C0A1
:100C7800F8FF35C0F7FF34C0F6FF33C0DAFF32C0E3
:100C8800D9FF31C0E2FF30C0E1FF68921100000EC9
:100C98000001856F83BF55EF06F053EF06F05BEF59
:100CA80006F0826D831FD8B0832B010E856F81BF3C
:100CB80062EF06F060EF06F068EF06F0806D811FC6
:100CC800D8B0812B010E851B000E876F000E866F32
:100CD80082518311D8B473EF06F075EF06F09DEFDB
:100CE80006F0010E846F7DEF06F0D89082378337C7
:100CF800842B83AF82EF06F084EF06F079EF06F0DD
:100D0800D890863787378251805D83518159D8A022
:100D180090EF06F092EF06F097EF06F08251805FB1
:100D28008351815B8681D89083338233842F84EF0B
:100D380006F08551D8B4A3EF06F0A5EF06F0A9EFA9
:100D480006F0866D871FD8B0872B86C080F087C0D5
:100D580081F01200000E066E04BEB7EF06F0B5EF84
:100D680006F0BDEF06F0036C041ED8B0042A010E8D
:100D7800066E02BEC4EF06F0C2EF06F0CAEF06F038
:100D8800016C021ED8B0022A010E061A000E086E67
:100D9800000E076E03500410D8B4D5EF06F0D7EF55
:100DA80006F0FFEF06F0010E056EDFEF06F0D890B3
:100DB80003360436052A04AEE4EF06F0E6EF06F043
:100DC800DBEF06F0D890073608360350015C045074
:100DD8000258D8A0F2EF06F0F4EF06F0F9EF06F0AB
:100DE8000350015E0450025A0780D890043203323F
:100DF800052EE6EF06F00650D8B405EF07F007EF2A
:100E080007F00BEF07F0076C081ED8B0082A07C0D8
:100E180001F008C002F0120020EEB1F010EEA4F0CC
:100E2800080EDBCFE3FFE806FCE2000E0001AE6F20
:100E3800000EAD6FA0A123EF07F025EF07F037EF05
:100E480007F0070EA26F000EA36FAD51A25FAE515F
:100E5800A35BA40EA225D96E000EA321DA6E310E73
:100E6800DF6E47EF07F0070EA26F000EA36FAD51BC
:100E7800A25FAE51A35BA40EA225D96E000EA321DA
:100E8800DA6E300EDF6EA0C080F0A1C081F0000ED7
:100E9800836F020E826F4BEC06F080C0A0F081C019
:100EA800A1F00001AD4BAE2BAEBF64EF07F0AE5121
:100EB80009E1080EAD5DD8A064EF07F066EF07F012
:100EC8001EEF07F0A40E9C6F000E9D6F06EC0AF053
:100ED800120020EEB1F010EE25F0080EDBCFE3FF94
:100EE800E806FCE2000E2F6E000E2E6E21A07FEFAA
:100EF80007F081EF07F093EF07F0070E236E000E5F
:100F0800246E2E50235E2F50245A250E2324D96E8A
:100F1800000E2420DA6E310EDF6EA3EF07F0070E05
:100F2800236E000E246E2E50235E2F50245A250E59
:100F38002324D96E000E2420DA6E300EDF6E21C015
:100F480001F022C002F0000E046E020E036EAEEC39
:100F580006F001C021F002C022F02E4A2F2A2FBE2F
:100F6800BFEF07F02F5009E1080E2E5CD8A0BFEFA5
:100F780007F0C1EF07F07AEF07F0250E1D6E000E9F
:100F88001E6E1AEC0AF01200000E0001856F81BF78
:100F9800D2EF07F0D0EF07F0D8EF07F0806D811F90
:100FA800D8B0812B010E856F83BFDFEF07F0DDEF2F
:100FB80007F0E3EF07F0826D831FD8B0832B8251CF
:100FC8008311D8B4EAEF07F0ECEF07F010EF08F060
:100FD800010E846FF4EF07F0D89082378337842BA3
:100FE80083AFF9EF07F0FBEF07F0F0EF07F082515E
:100FF800805D83518159D8A004EF08F006EF08F00E
:101008000AEF08F08251805F8351815BD890833367
:101018008233842FFBEF07F08551D8B416EF08F020
:1010280018EF08F01CEF08F0806D811FD8B0812BF5
:1010380080C080F081C081F01200000E066E02BEF2
:101048002AEF08F028EF08F030EF08F0016C021ED4
:10105800D8B0022A010E066E04BE37EF08F035EF4D
:1010680008F03BEF08F0036C041ED8B0042A0350C4
:101078000410D8B442EF08F044EF08F068EF08F025
:10108800010E056E4CEF08F0D89003360436052A99
:1010980004AE51EF08F053EF08F048EF08F00350A2
:1010A800015C04500258D8A05CEF08F05EEF08F02D
:1010B80062EF08F00350015E0450025AD8900432DF
:1010C8000332052E53EF08F00650D8B46EEF08F03F
:1010D80070EF08F074EF08F0016C021ED8B0022A15
:1010E80001C001F002C002F0120000018351841116
:1010F800D8B481EF08F083EF08F08CEF08F0835143
:101108008411D8A48AEF08F08CEF08F091EF08F06A
:1011180081512DEC0AF0C4EF08F020EE04F0835161
:10112800D9268451DA22DE50DE10D8B49EEF08F0BA
:10113800A0EF08F0BBEF08F020EE04F08351D926A9
:101148008451DA2210EE02F08351E1268451E22222
:10115800DE50E65CE650800A896FDE50800A8959C5
:10116800D8B0B9EF08F0BBEF08F0C4EF08F020EEF4
:1011780002F08351D9268451DA22DE2A000EDD22BC
:10118800120004500510D8B4CCEF08F0CEEF08F0E8
:10119800D7EF08F004500510D8A4D5EF08F0D7EF22
:1011A80008F0DCEF08F0025039EC0AF00FEF09F014
:1011B80020EE04F00450D9260550DA22DE50DE1065
:1011C800D8B4E9EF08F0EBEF08F006EF09F020EEED
:1011D80004F00450D9260550DA2210EE02F004502B
:1011E800E1260550E222DE50E65CE650800A0A6EEF
:1011F800DE50800A0A58D8B004EF09F006EF09F06B
:101208000FEF09F020EE02F00450D9260550DA223B
:10121800DE2A000EDD22120096C09AF097C09BF0DD
:10122800000E596E000E586E2EEF09F094C08AF029
:1012380095C08BF09A0E00018C6F000E8D6F98C0D0
:101248008EF099C08FF026EC04F000018A515826E0
:101258008B5159229AC0F6FF9BC0F7FFF86A050E1A
:10126800F76403D00800F55005D0F6CFE1FFF7CFBB
:10127800E2FFE7500009D8A444EF09F046EF09F06F
:101288001AEF09F058C094F059C095F0120017C031
:101298001BF018C01CF0000E596E000E586E67EF58
:1012A80009F015C00BF016C00CF01B0E0D6E000EE9
:1012B8000E6E19C00FF01AC010F0FCEC04F00B50C1
:1012C80058260C5059221BC0F6FF1CC0F7FFF86ABD
:1012D800050EF76403D00800F55005D0F6CFE1FFFE
:1012E800F7CFE2FFE7500009D8A47DEF09F07FEFC0
:1012F80009F055EF09F058C015F059C016F0120062
:1013080060C0A0F061C0A1F010EC07F0040E00016D
:101318009C6F060E9D6F06EC0AF062C0A0F063C0D9
:10132800A1F010EC07F0040E00019C6F060E9D6FF3
:1013380006EC0AF066C0A0F067C0A1F010EC07F058
:10134800020E00019C6F060E9D6F06EC0AF066C047
:1013580089FF62C08AFF60C08CFF120060C021F064
:1013680061C022F06DEC07F0040E1D6E060E1E6EB5
:101378001AEC0AF062C021F063C022F06DEC07F0AD
:10138800040E1D6E060E1E6E1AEC0AF066C021F0E1
:1013980067C022F06DEC07F0020E1D6E060E1E6E81
:1013A8001AEC0AF066C089FF62C08AFF60C08CFF31
:1013B8001200880EF66E140EF76E000EF86E00EE30
:1013C800B1F010EE09F00900F5CFEEFFE550E1505D
:1013D800FAE1910EF66E140EF76E000EF86E090023
:1013E800F5CF66F00900F5CF67F000EE38F02E0E65
:1013F800EE6AE806FDE168906892000EF86E00015A
:1014080004EF03F09E0E00019E6F000E9F6F000E0A
:10141800946F000E956F9CC096F09DC097F09E0E3D
:10142800986F000E996F10EC09F012001F0E1F6ED6
:10143800000E206E000E156E000E166E1DC017F001
:101448001EC018F01F0E196E000E1A6E4BEC09F034
:1014580012000001806F9EA834EF0AF036EF0AF000
:101468002FEF0AF080C0ADFF1200016E9EA83FEF7B
:101478000AF041EF0AF03AEF0AF001C0ADFF12009E
:0B148800303030303030303000FFFFDB
:020000040020DA
:08000000FFFFFFFFFFFFFFFF00
:020000040030CA
:0E000000FF01191EFF8181FF0FC00FE00F40AE
:00000001FF
